{
  "_format": "hh-sol-artifact-1",
  "contractName": "Donate",
  "sourceName": "contracts/Donations.sol",
  "abi": [
    {
      "inputs": [],
      "stateMutability": "nonpayable",
      "type": "constructor"
    },
    {
      "inputs": [],
      "name": "getDonors",
      "outputs": [
        {
          "components": [
            {
              "internalType": "address",
              "name": "donor",
              "type": "address"
            },
            {
              "internalType": "uint256",
              "name": "amount",
              "type": "uint256"
            }
          ],
          "internalType": "struct Donate.Donation[]",
          "name": "",
          "type": "tuple[]"
        }
      ],
      "stateMutability": "view",
      "type": "function"
    },
    {
      "inputs": [],
      "name": "getTotalDonations",
      "outputs": [
        {
          "internalType": "uint256",
          "name": "",
          "type": "uint256"
        }
      ],
      "stateMutability": "view",
      "type": "function"
    },
    {
      "stateMutability": "payable",
      "type": "receive"
    }
  ],
  "bytecode": "0x608060405234801561001057600080fd5b50336000806101000a81548173ffffffffffffffffffffffffffffffffffffffff021916908373ffffffffffffffffffffffffffffffffffffffff160217905550610459806100606000396000f3fe60806040526004361061002d5760003560e01c8063777c658f146100fb57806396f300d414610126576100f6565b366100f657600260405180604001604052803373ffffffffffffffffffffffffffffffffffffffff16815260200134815250908060018154018082558091505060019003906000526020600020906002020160009091909190915060008201518160000160006101000a81548173ffffffffffffffffffffffffffffffffffffffff021916908373ffffffffffffffffffffffffffffffffffffffff16021790555060208201518160010155505034600160008282546100ed9190610253565b92505081905550005b600080fd5b34801561010757600080fd5b50610110610151565b60405161011d91906102b8565b60405180910390f35b34801561013257600080fd5b5061013b61015b565b6040516101489190610401565b60405180910390f35b6000600154905090565b60606002805480602002602001604051908101604052809291908181526020016000905b8282101561021157838290600052602060002090600202016040518060400160405290816000820160009054906101000a900473ffffffffffffffffffffffffffffffffffffffff1673ffffffffffffffffffffffffffffffffffffffff1673ffffffffffffffffffffffffffffffffffffffff1681526020016001820154815250508152602001906001019061017f565b50505050905090565b6000819050919050565b7f4e487b7100000000000000000000000000000000000000000000000000000000600052601160045260246000fd5b600061025e8261021a565b91506102698361021a565b9250827fffffffffffffffffffffffffffffffffffffffffffffffffffffffffffffffff0382111561029e5761029d610224565b5b828201905092915050565b6102b28161021a565b82525050565b60006020820190506102cd60008301846102a9565b92915050565b600081519050919050565b600082825260208201905092915050565b6000819050602082019050919050565b600073ffffffffffffffffffffffffffffffffffffffff82169050919050565b600061032a826102ff565b9050919050565b61033a8161031f565b82525050565b6103498161021a565b82525050565b6040820160008201516103656000850182610331565b5060208201516103786020850182610340565b50505050565b600061038a838361034f565b60408301905092915050565b6000602082019050919050565b60006103ae826102d3565b6103b881856102de565b93506103c3836102ef565b8060005b838110156103f45781516103db888261037e565b97506103e683610396565b9250506001810190506103c7565b5085935050505092915050565b6000602082019050818103600083015261041b81846103a3565b90509291505056fea2646970667358221220c4d5b1ee16593fc06079eb18e4d84bba4ab9021426020018997dcc9eaa65177364736f6c63430008090033",
  "linkReferences": {},
  "deployedLinkReferences": {}
}